{
  "_format": "hh-sol-artifact-1",
  "contractName": "DAOGovernance",
  "sourceName": "contracts/DAOGovernance.sol",
  "abi": [
    {
      "inputs": [],
      "stateMutability": "nonpayable",
      "type": "constructor"
    },
    {
      "anonymous": false,
      "inputs": [
        {
          "indexed": true,
          "internalType": "address",
          "name": "member",
          "type": "address"
        }
      ],
      "name": "MemberJoined",
      "type": "event"
    },
    {
      "anonymous": false,
      "inputs": [
        {
          "indexed": true,
          "internalType": "uint256",
          "name": "proposalId",
          "type": "uint256"
        },
        {
          "indexed": true,
          "internalType": "string",
          "name": "title",
          "type": "string"
        },
        {
          "indexed": true,
          "internalType": "address",
          "name": "proposer",
          "type": "address"
        },
        {
          "indexed": false,
          "internalType": "string",
          "name": "content",
          "type": "string"
        },
        {
          "indexed": false,
          "internalType": "uint256",
          "name": "endTime",
          "type": "uint256"
        }
      ],
      "name": "NewProposal",
      "type": "event"
    },
    {
      "anonymous": false,
      "inputs": [
        {
          "indexed": true,
          "internalType": "uint256",
          "name": "proposalId",
          "type": "uint256"
        },
        {
          "indexed": false,
          "internalType": "bool",
          "name": "result",
          "type": "bool"
        }
      ],
      "name": "ProposalExecuted",
      "type": "event"
    },
    {
      "anonymous": false,
      "inputs": [
        {
          "indexed": true,
          "internalType": "bytes32",
          "name": "role",
          "type": "bytes32"
        },
        {
          "indexed": true,
          "internalType": "bytes32",
          "name": "previousAdminRole",
          "type": "bytes32"
        },
        {
          "indexed": true,
          "internalType": "bytes32",
          "name": "newAdminRole",
          "type": "bytes32"
        }
      ],
      "name": "RoleAdminChanged",
      "type": "event"
    },
    {
      "anonymous": false,
      "inputs": [
        {
          "indexed": true,
          "internalType": "bytes32",
          "name": "role",
          "type": "bytes32"
        },
        {
          "indexed": true,
          "internalType": "address",
          "name": "account",
          "type": "address"
        },
        {
          "indexed": true,
          "internalType": "address",
          "name": "sender",
          "type": "address"
        }
      ],
      "name": "RoleGranted",
      "type": "event"
    },
    {
      "anonymous": false,
      "inputs": [
        {
          "indexed": true,
          "internalType": "bytes32",
          "name": "role",
          "type": "bytes32"
        },
        {
          "indexed": true,
          "internalType": "address",
          "name": "account",
          "type": "address"
        },
        {
          "indexed": true,
          "internalType": "address",
          "name": "sender",
          "type": "address"
        }
      ],
      "name": "RoleRevoked",
      "type": "event"
    },
    {
      "anonymous": false,
      "inputs": [
        {
          "indexed": true,
          "internalType": "uint256",
          "name": "proposalId",
          "type": "uint256"
        },
        {
          "indexed": true,
          "internalType": "address",
          "name": "voter",
          "type": "address"
        },
        {
          "indexed": false,
          "internalType": "bool",
          "name": "support",
          "type": "bool"
        }
      ],
      "name": "Voted",
      "type": "event"
    },
    {
      "inputs": [],
      "name": "CITIZEN_ROLE",
      "outputs": [
        {
          "internalType": "bytes32",
          "name": "",
          "type": "bytes32"
        }
      ],
      "stateMutability": "view",
      "type": "function"
    },
    {
      "inputs": [],
      "name": "DEFAULT_ADMIN_ROLE",
      "outputs": [
        {
          "internalType": "bytes32",
          "name": "",
          "type": "bytes32"
        }
      ],
      "stateMutability": "view",
      "type": "function"
    },
    {
      "inputs": [],
      "name": "MANAGER_ROLE",
      "outputs": [
        {
          "internalType": "bytes32",
          "name": "",
          "type": "bytes32"
        }
      ],
      "stateMutability": "view",
      "type": "function"
    },
    {
      "inputs": [
        {
          "internalType": "address",
          "name": "account",
          "type": "address"
        }
      ],
      "name": "addManager",
      "outputs": [],
      "stateMutability": "nonpayable",
      "type": "function"
    },
    {
      "inputs": [],
      "name": "communityFund",
      "outputs": [
        {
          "internalType": "address",
          "name": "",
          "type": "address"
        }
      ],
      "stateMutability": "view",
      "type": "function"
    },
    {
      "inputs": [
        {
          "internalType": "string",
          "name": "title",
          "type": "string"
        },
        {
          "internalType": "string",
          "name": "content",
          "type": "string"
        }
      ],
      "name": "createProposal",
      "outputs": [],
      "stateMutability": "nonpayable",
      "type": "function"
    },
    {
      "inputs": [],
      "name": "currentProposalIndex",
      "outputs": [
        {
          "internalType": "uint256",
          "name": "",
          "type": "uint256"
        }
      ],
      "stateMutability": "view",
      "type": "function"
    },
    {
      "inputs": [
        {
          "internalType": "uint256",
          "name": "proposalId",
          "type": "uint256"
        }
      ],
      "name": "executeProposal",
      "outputs": [],
      "stateMutability": "nonpayable",
      "type": "function"
    },
    {
      "inputs": [
        {
          "internalType": "uint256",
          "name": "proposalId",
          "type": "uint256"
        }
      ],
      "name": "getProposal",
      "outputs": [
        {
          "internalType": "address",
          "name": "proposer",
          "type": "address"
        },
        {
          "internalType": "string",
          "name": "title",
          "type": "string"
        },
        {
          "internalType": "string",
          "name": "content",
          "type": "string"
        },
        {
          "internalType": "uint256",
          "name": "createTime",
          "type": "uint256"
        },
        {
          "internalType": "uint256",
          "name": "endTime",
          "type": "uint256"
        },
        {
          "internalType": "uint256",
          "name": "yesVotes",
          "type": "uint256"
        },
        {
          "internalType": "uint256",
          "name": "noVotes",
          "type": "uint256"
        },
        {
          "internalType": "uint256",
          "name": "totalVoters",
          "type": "uint256"
        },
        {
          "internalType": "bool",
          "name": "executed",
          "type": "bool"
        }
      ],
      "stateMutability": "view",
      "type": "function"
    },
    {
      "inputs": [
        {
          "internalType": "bytes32",
          "name": "role",
          "type": "bytes32"
        }
      ],
      "name": "getRoleAdmin",
      "outputs": [
        {
          "internalType": "bytes32",
          "name": "",
          "type": "bytes32"
        }
      ],
      "stateMutability": "view",
      "type": "function"
    },
    {
      "inputs": [
        {
          "internalType": "uint256",
          "name": "proposalId",
          "type": "uint256"
        },
        {
          "internalType": "address",
          "name": "voter",
          "type": "address"
        }
      ],
      "name": "getVoteType",
      "outputs": [
        {
          "internalType": "bool",
          "name": "",
          "type": "bool"
        }
      ],
      "stateMutability": "view",
      "type": "function"
    },
    {
      "inputs": [
        {
          "internalType": "bytes32",
          "name": "role",
          "type": "bytes32"
        },
        {
          "internalType": "address",
          "name": "account",
          "type": "address"
        }
      ],
      "name": "grantRole",
      "outputs": [],
      "stateMutability": "nonpayable",
      "type": "function"
    },
    {
      "inputs": [
        {
          "internalType": "bytes32",
          "name": "role",
          "type": "bytes32"
        },
        {
          "internalType": "address",
          "name": "account",
          "type": "address"
        }
      ],
      "name": "hasRole",
      "outputs": [
        {
          "internalType": "bool",
          "name": "",
          "type": "bool"
        }
      ],
      "stateMutability": "view",
      "type": "function"
    },
    {
      "inputs": [
        {
          "internalType": "uint256",
          "name": "proposalId",
          "type": "uint256"
        },
        {
          "internalType": "address",
          "name": "voter",
          "type": "address"
        }
      ],
      "name": "hasVoted",
      "outputs": [
        {
          "internalType": "bool",
          "name": "",
          "type": "bool"
        }
      ],
      "stateMutability": "view",
      "type": "function"
    },
    {
      "inputs": [
        {
          "internalType": "address",
          "name": "",
          "type": "address"
        }
      ],
      "name": "isMember",
      "outputs": [
        {
          "internalType": "bool",
          "name": "",
          "type": "bool"
        }
      ],
      "stateMutability": "view",
      "type": "function"
    },
    {
      "inputs": [],
      "name": "joinDAO",
      "outputs": [],
      "stateMutability": "nonpayable",
      "type": "function"
    },
    {
      "inputs": [],
      "name": "memberCount",
      "outputs": [
        {
          "internalType": "uint256",
          "name": "",
          "type": "uint256"
        }
      ],
      "stateMutability": "view",
      "type": "function"
    },
    {
      "inputs": [],
      "name": "proposalCount",
      "outputs": [
        {
          "internalType": "uint256",
          "name": "",
          "type": "uint256"
        }
      ],
      "stateMutability": "view",
      "type": "function"
    },
    {
      "inputs": [
        {
          "internalType": "uint256",
          "name": "",
          "type": "uint256"
        }
      ],
      "name": "proposals",
      "outputs": [
        {
          "internalType": "address",
          "name": "proposer",
          "type": "address"
        },
        {
          "internalType": "string",
          "name": "title",
          "type": "string"
        },
        {
          "internalType": "string",
          "name": "content",
          "type": "string"
        },
        {
          "internalType": "uint256",
          "name": "createTime",
          "type": "uint256"
        },
        {
          "internalType": "uint256",
          "name": "endTime",
          "type": "uint256"
        },
        {
          "internalType": "uint256",
          "name": "yesVotes",
          "type": "uint256"
        },
        {
          "internalType": "uint256",
          "name": "noVotes",
          "type": "uint256"
        },
        {
          "internalType": "uint256",
          "name": "totalVoters",
          "type": "uint256"
        },
        {
          "internalType": "bool",
          "name": "executed",
          "type": "bool"
        }
      ],
      "stateMutability": "view",
      "type": "function"
    },
    {
      "inputs": [
        {
          "internalType": "bytes32",
          "name": "role",
          "type": "bytes32"
        },
        {
          "internalType": "address",
          "name": "account",
          "type": "address"
        }
      ],
      "name": "renounceRole",
      "outputs": [],
      "stateMutability": "nonpayable",
      "type": "function"
    },
    {
      "inputs": [
        {
          "internalType": "bytes32",
          "name": "role",
          "type": "bytes32"
        },
        {
          "internalType": "address",
          "name": "account",
          "type": "address"
        }
      ],
      "name": "revokeRole",
      "outputs": [],
      "stateMutability": "nonpayable",
      "type": "function"
    },
    {
      "inputs": [
        {
          "internalType": "bytes4",
          "name": "interfaceId",
          "type": "bytes4"
        }
      ],
      "name": "supportsInterface",
      "outputs": [
        {
          "internalType": "bool",
          "name": "",
          "type": "bool"
        }
      ],
      "stateMutability": "view",
      "type": "function"
    },
    {
      "inputs": [
        {
          "internalType": "uint256",
          "name": "proposalId",
          "type": "uint256"
        },
        {
          "internalType": "bool",
          "name": "support",
          "type": "bool"
        }
      ],
      "name": "vote",
      "outputs": [],
      "stateMutability": "nonpayable",
      "type": "function"
    }
  ],
  "bytecode": "0x608060405234801561001057600080fd5b506100246000801b3361009a60201b60201c565b6100547f241ecf16d79d0f8dbfb92cbc07fe17840425976cf0667f022fe9877caa831b083361009a60201b60201c565b30600460006101000a81548173ffffffffffffffffffffffffffffffffffffffff021916908373ffffffffffffffffffffffffffffffffffffffff1602179055506101f8565b6100aa828261018660201b60201c565b61018257600160008084815260200190815260200160002060000160008373ffffffffffffffffffffffffffffffffffffffff1673ffffffffffffffffffffffffffffffffffffffff16815260200190815260200160002060006101000a81548160ff0219169083151502179055506101276101f060201b60201c565b73ffffffffffffffffffffffffffffffffffffffff168173ffffffffffffffffffffffffffffffffffffffff16837f2f8788117e7eff1d82e926ec794901d17c78024a50270940304540a733656f0d60405160405180910390a45b5050565b600080600084815260200190815260200160002060000160008373ffffffffffffffffffffffffffffffffffffffff1673ffffffffffffffffffffffffffffffffffffffff16815260200190815260200160002060009054906101000a900460ff16905092915050565b600033905090565b61289a806102076000396000f3fe608060405234801561001057600080fd5b506004361061014c5760003560e01c806343859632116100c3578063c9d27afe1161007c578063c9d27afe146103d3578063ca953d3a146103ef578063d547741f1461041f578063da35c6641461043b578063ec87621c14610459578063f63d13d7146104775761014c565b806343859632146102d157806365e481e21461030157806391d148541461031d578063a217fddf1461034d578063a230c5241461036b578063c7f758a81461039b5761014c565b8063248a9ca311610115578063248a9ca3146102115780632b9e1d70146102415780632d06177a1461025f5780632f2ff15d1461027b57806331835fb81461029757806336568abe146102b55761014c565b8062f380f414610151578063013cf08b1461016f57806301ffc9a7146101a75780630d61b519146101d757806311aee380146101f3575b600080fd5b610159610481565b6040516101669190611857565b60405180910390f35b610189600480360381019061018491906118bc565b6104a7565b60405161019e999897969594939291906119a3565b60405180910390f35b6101c160048036038101906101bc9190611a96565b610632565b6040516101ce9190611ac3565b60405180910390f35b6101f160048036038101906101ec91906118bc565b6106ac565b005b6101fb610806565b6040516102089190611ade565b60405180910390f35b61022b60048036038101906102269190611b2f565b61080c565b6040516102389190611b6b565b60405180910390f35b61024961082b565b6040516102569190611b6b565b60405180910390f35b61027960048036038101906102749190611bb2565b61084f565b005b61029560048036038101906102909190611bdf565b61088a565b005b61029f6108ab565b6040516102ac9190611ade565b60405180910390f35b6102cf60048036038101906102ca9190611bdf565b6108b1565b005b6102eb60048036038101906102e69190611c1f565b610934565b6040516102f89190611ac3565b60405180910390f35b61031b60048036038101906103169190611d94565b6109e3565b005b61033760048036038101906103329190611bdf565b610b3f565b6040516103449190611ac3565b60405180910390f35b610355610ba9565b6040516103629190611b6b565b60405180910390f35b61038560048036038101906103809190611bb2565b610bb0565b6040516103929190611ac3565b60405180910390f35b6103b560048036038101906103b091906118bc565b610bd0565b6040516103ca999897969594939291906119a3565b60405180910390f35b6103ed60048036038101906103e89190611e38565b610d85565b005b61040960048036038101906104049190611c1f565b610ffe565b6040516104169190611ac3565b60405180910390f35b61043960048036038101906104349190611bdf565b61114d565b005b61044361116e565b6040516104509190611ade565b60405180910390f35b610461611174565b60405161046e9190611b6b565b60405180910390f35b61047f611198565b005b600460009054906101000a900473ffffffffffffffffffffffffffffffffffffffff1681565b60056020528060005260406000206000915090508060000160009054906101000a900473ffffffffffffffffffffffffffffffffffffffff16908060010180546104f090611ea7565b80601f016020809104026020016040519081016040528092919081815260200182805461051c90611ea7565b80156105695780601f1061053e57610100808354040283529160200191610569565b820191906000526020600020905b81548152906001019060200180831161054c57829003601f168201915b50505050509080600201805461057e90611ea7565b80601f01602080910402602001604051908101604052809291908181526020018280546105aa90611ea7565b80156105f75780601f106105cc576101008083540402835291602001916105f7565b820191906000526020600020905b8154815290600101906020018083116105da57829003601f168201915b5050505050908060030154908060040154908060050154908060060154908060070154908060080160009054906101000a900460ff16905089565b60007f7965db0b000000000000000000000000000000000000000000000000000000007bffffffffffffffffffffffffffffffffffffffffffffffffffffffff1916827bffffffffffffffffffffffffffffffffffffffffffffffffffffffff191614806106a557506106a4826112e1565b5b9050919050565b7f241ecf16d79d0f8dbfb92cbc07fe17840425976cf0667f022fe9877caa831b086106d68161134b565b600060056000848152602001908152602001600020905080600401544211610733576040517f08c379a000000000000000000000000000000000000000000000000000000000815260040161072a90611f24565b60405180910390fd5b8060080160009054906101000a900460ff1615610785576040517f08c379a000000000000000000000000000000000000000000000000000000000815260040161077c90611f90565b60405180910390fd5b600060416001546064846005015461079d9190611fdf565b6107a79190612050565b1015905060018260080160006101000a81548160ff021916908315150217905550837f948f4a9cd986f1118c3fbd459f7a22b23c0693e1ca3ef06a6a8be5aa7d39cc03826040516107f89190611ac3565b60405180910390a250505050565b60015481565b6000806000838152602001908152602001600020600101549050919050565b7f8f1426173eb922d2001706a308dabfa96e3c06475230fb5111184f70a4b5776d81565b6000801b61085c8161134b565b6108867f241ecf16d79d0f8dbfb92cbc07fe17840425976cf0667f022fe9877caa831b088361088a565b5050565b6108938261080c565b61089c8161134b565b6108a6838361135f565b505050565b60035481565b6108b961143f565b73ffffffffffffffffffffffffffffffffffffffff168173ffffffffffffffffffffffffffffffffffffffff1614610926576040517f08c379a000000000000000000000000000000000000000000000000000000000815260040161091d906120f3565b60405180910390fd5b6109308282611447565b5050565b6000600254831061097a576040517f08c379a00000000000000000000000000000000000000000000000000000000081526004016109719061215f565b60405180910390fd5b6005600084815260200190815260200160002060090160008373ffffffffffffffffffffffffffffffffffffffff1673ffffffffffffffffffffffffffffffffffffffff16815260200190815260200160002060009054906101000a900460ff16905092915050565b7f241ecf16d79d0f8dbfb92cbc07fe17840425976cf0667f022fe9877caa831b08610a0d8161134b565b600060026000815480929190610a229061217f565b9190505590506000600560008381526020019081526020016000209050338160000160006101000a81548173ffffffffffffffffffffffffffffffffffffffff021916908373ffffffffffffffffffffffffffffffffffffffff16021790555084816001019081610a939190612373565b5083816002019081610aa59190612373565b504281600301819055506203f48042610abe9190612445565b8160040181905550816003819055503373ffffffffffffffffffffffffffffffffffffffff1685604051610af291906124b5565b6040518091039020837f72827935ce50882c387a67c92853e09727dae6008fff6c3dd62191b59802d2e7878560040154604051610b309291906124cc565b60405180910390a45050505050565b600080600084815260200190815260200160002060000160008373ffffffffffffffffffffffffffffffffffffffff1673ffffffffffffffffffffffffffffffffffffffff16815260200190815260200160002060009054906101000a900460ff16905092915050565b6000801b81565b60066020528060005260406000206000915054906101000a900460ff1681565b60006060806000806000806000806000600560008c815260200190815260200160002090508060000160009054906101000a900473ffffffffffffffffffffffffffffffffffffffff168160010182600201836003015484600401548560050154866006015487600701548860080160009054906101000a900460ff16878054610c5990611ea7565b80601f0160208091040260200160405190810160405280929190818152602001828054610c8590611ea7565b8015610cd25780601f10610ca757610100808354040283529160200191610cd2565b820191906000526020600020905b815481529060010190602001808311610cb557829003601f168201915b50505050509750868054610ce590611ea7565b80601f0160208091040260200160405190810160405280929190818152602001828054610d1190611ea7565b8015610d5e5780601f10610d3357610100808354040283529160200191610d5e565b820191906000526020600020905b815481529060010190602001808311610d4157829003601f168201915b50505050509650995099509950995099509950995099509950509193959799909294969850565b7f8f1426173eb922d2001706a308dabfa96e3c06475230fb5111184f70a4b5776d610daf8161134b565b60006005600085815260200190815260200160002090508060040154421115610e0d576040517f08c379a0000000000000000000000000000000000000000000000000000000008152600401610e0490612548565b60405180910390fd5b8060090160003373ffffffffffffffffffffffffffffffffffffffff1673ffffffffffffffffffffffffffffffffffffffff16815260200190815260200160002060009054906101000a900460ff1615610e9c576040517f08c379a0000000000000000000000000000000000000000000000000000000008152600401610e93906125b4565b60405180910390fd5b806007016000815480929190610eb19061217f565b919050555060018160090160003373ffffffffffffffffffffffffffffffffffffffff1673ffffffffffffffffffffffffffffffffffffffff16815260200190815260200160002060006101000a81548160ff0219169083151502179055508281600a0160003373ffffffffffffffffffffffffffffffffffffffff1673ffffffffffffffffffffffffffffffffffffffff16815260200190815260200160002060006101000a81548160ff0219169083151502179055508215610f8e57806005016000815480929190610f849061217f565b9190505550610fa9565b806006016000815480929190610fa39061217f565b91905055505b3373ffffffffffffffffffffffffffffffffffffffff16847ff2913dbe661ee2acc4a046d8fbcdc792373bda34c41c6086484b5345e5785e5f85604051610ff09190611ac3565b60405180910390a350505050565b60006002548310611044576040517f08c379a000000000000000000000000000000000000000000000000000000000815260040161103b9061215f565b60405180910390fd5b6005600084815260200190815260200160002060090160008373ffffffffffffffffffffffffffffffffffffffff1673ffffffffffffffffffffffffffffffffffffffff16815260200190815260200160002060009054906101000a900460ff166110e4576040517f08c379a00000000000000000000000000000000000000000000000000000000081526004016110db90612620565b60405180910390fd5b60056000848152602001908152602001600020600a0160008373ffffffffffffffffffffffffffffffffffffffff1673ffffffffffffffffffffffffffffffffffffffff16815260200190815260200160002060009054906101000a900460ff16905092915050565b6111568261080c565b61115f8161134b565b6111698383611447565b505050565b60025481565b7f241ecf16d79d0f8dbfb92cbc07fe17840425976cf0667f022fe9877caa831b0881565b6111c27f8f1426173eb922d2001706a308dabfa96e3c06475230fb5111184f70a4b5776d33610b3f565b15611202576040517f08c379a00000000000000000000000000000000000000000000000000000000081526004016111f99061268c565b60405180910390fd5b61122c7f8f1426173eb922d2001706a308dabfa96e3c06475230fb5111184f70a4b5776d3361135f565b6001600660003373ffffffffffffffffffffffffffffffffffffffff1673ffffffffffffffffffffffffffffffffffffffff16815260200190815260200160002060006101000a81548160ff021916908315150217905550600160008154809291906112979061217f565b91905055503373ffffffffffffffffffffffffffffffffffffffff167f0abf3b3f643594d958297062a019458e27d7766629590ac621aa1000fa1298ab60405160405180910390a2565b60007f01ffc9a7000000000000000000000000000000000000000000000000000000007bffffffffffffffffffffffffffffffffffffffffffffffffffffffff1916827bffffffffffffffffffffffffffffffffffffffffffffffffffffffff1916149050919050565b61135c8161135761143f565b611528565b50565b6113698282610b3f565b61143b57600160008084815260200190815260200160002060000160008373ffffffffffffffffffffffffffffffffffffffff1673ffffffffffffffffffffffffffffffffffffffff16815260200190815260200160002060006101000a81548160ff0219169083151502179055506113e061143f565b73ffffffffffffffffffffffffffffffffffffffff168173ffffffffffffffffffffffffffffffffffffffff16837f2f8788117e7eff1d82e926ec794901d17c78024a50270940304540a733656f0d60405160405180910390a45b5050565b600033905090565b6114518282610b3f565b1561152457600080600084815260200190815260200160002060000160008373ffffffffffffffffffffffffffffffffffffffff1673ffffffffffffffffffffffffffffffffffffffff16815260200190815260200160002060006101000a81548160ff0219169083151502179055506114c961143f565b73ffffffffffffffffffffffffffffffffffffffff168173ffffffffffffffffffffffffffffffffffffffff16837ff6391f5c32d9c69d2a47ea670b442974b53935d1edc7fd64eb21e047a839171b60405160405180910390a45b5050565b6115328282610b3f565b6115a95761153f816115ad565b61154d8360001c60206115da565b60405160200161155e929190612744565b6040516020818303038152906040526040517f08c379a00000000000000000000000000000000000000000000000000000000081526004016115a0919061277e565b60405180910390fd5b5050565b60606115d38273ffffffffffffffffffffffffffffffffffffffff16601460ff166115da565b9050919050565b6060600060028360026115ed9190611fdf565b6115f79190612445565b67ffffffffffffffff8111156116105761160f611c69565b5b6040519080825280601f01601f1916602001820160405280156116425781602001600182028036833780820191505090505b5090507f30000000000000000000000000000000000000000000000000000000000000008160008151811061167a576116796127a0565b5b60200101907effffffffffffffffffffffffffffffffffffffffffffffffffffffffffffff1916908160001a9053507f7800000000000000000000000000000000000000000000000000000000000000816001815181106116de576116dd6127a0565b5b60200101907effffffffffffffffffffffffffffffffffffffffffffffffffffffffffffff1916908160001a9053506000600184600261171e9190611fdf565b6117289190612445565b90505b60018111156117c8577f3031323334353637383961626364656600000000000000000000000000000000600f86166010811061176a576117696127a0565b5b1a60f81b828281518110611781576117806127a0565b5b60200101907effffffffffffffffffffffffffffffffffffffffffffffffffffffffffffff1916908160001a905350600485901c9450806117c1906127cf565b905061172b565b506000841461180c576040517f08c379a000000000000000000000000000000000000000000000000000000000815260040161180390612844565b60405180910390fd5b8091505092915050565b600073ffffffffffffffffffffffffffffffffffffffff82169050919050565b600061184182611816565b9050919050565b61185181611836565b82525050565b600060208201905061186c6000830184611848565b92915050565b6000604051905090565b600080fd5b600080fd5b6000819050919050565b61189981611886565b81146118a457600080fd5b50565b6000813590506118b681611890565b92915050565b6000602082840312156118d2576118d161187c565b5b60006118e0848285016118a7565b91505092915050565b600081519050919050565b600082825260208201905092915050565b60005b83811015611923578082015181840152602081019050611908565b60008484015250505050565b6000601f19601f8301169050919050565b600061194b826118e9565b61195581856118f4565b9350611965818560208601611905565b61196e8161192f565b840191505092915050565b61198281611886565b82525050565b60008115159050919050565b61199d81611988565b82525050565b6000610120820190506119b9600083018c611848565b81810360208301526119cb818b611940565b905081810360408301526119df818a611940565b90506119ee6060830189611979565b6119fb6080830188611979565b611a0860a0830187611979565b611a1560c0830186611979565b611a2260e0830185611979565b611a30610100830184611994565b9a9950505050505050505050565b60007fffffffff0000000000000000000000000000000000000000000000000000000082169050919050565b611a7381611a3e565b8114611a7e57600080fd5b50565b600081359050611a9081611a6a565b92915050565b600060208284031215611aac57611aab61187c565b5b6000611aba84828501611a81565b91505092915050565b6000602082019050611ad86000830184611994565b92915050565b6000602082019050611af36000830184611979565b92915050565b6000819050919050565b611b0c81611af9565b8114611b1757600080fd5b50565b600081359050611b2981611b03565b92915050565b600060208284031215611b4557611b4461187c565b5b6000611b5384828501611b1a565b91505092915050565b611b6581611af9565b82525050565b6000602082019050611b806000830184611b5c565b92915050565b611b8f81611836565b8114611b9a57600080fd5b50565b600081359050611bac81611b86565b92915050565b600060208284031215611bc857611bc761187c565b5b6000611bd684828501611b9d565b91505092915050565b60008060408385031215611bf657611bf561187c565b5b6000611c0485828601611b1a565b9250506020611c1585828601611b9d565b9150509250929050565b60008060408385031215611c3657611c3561187c565b5b6000611c44858286016118a7565b9250506020611c5585828601611b9d565b9150509250929050565b600080fd5b600080fd5b7f4e487b7100000000000000000000000000000000000000000000000000000000600052604160045260246000fd5b611ca18261192f565b810181811067ffffffffffffffff82111715611cc057611cbf611c69565b5b80604052505050565b6000611cd3611872565b9050611cdf8282611c98565b919050565b600067ffffffffffffffff821115611cff57611cfe611c69565b5b611d088261192f565b9050602081019050919050565b82818337600083830152505050565b6000611d37611d3284611ce4565b611cc9565b905082815260208101848484011115611d5357611d52611c64565b5b611d5e848285611d15565b509392505050565b600082601f830112611d7b57611d7a611c5f565b5b8135611d8b848260208601611d24565b91505092915050565b60008060408385031215611dab57611daa61187c565b5b600083013567ffffffffffffffff811115611dc957611dc8611881565b5b611dd585828601611d66565b925050602083013567ffffffffffffffff811115611df657611df5611881565b5b611e0285828601611d66565b9150509250929050565b611e1581611988565b8114611e2057600080fd5b50565b600081359050611e3281611e0c565b92915050565b60008060408385031215611e4f57611e4e61187c565b5b6000611e5d858286016118a7565b9250506020611e6e85828601611e23565b9150509250929050565b7f4e487b7100000000000000000000000000000000000000000000000000000000600052602260045260246000fd5b60006002820490506001821680611ebf57607f821691505b602082108103611ed257611ed1611e78565b5b50919050565b7f566f74696e67206e6f7420656e64656400000000000000000000000000000000600082015250565b6000611f0e6010836118f4565b9150611f1982611ed8565b602082019050919050565b60006020820190508181036000830152611f3d81611f01565b9050919050565b7f416c726561647920657865637574656400000000000000000000000000000000600082015250565b6000611f7a6010836118f4565b9150611f8582611f44565b602082019050919050565b60006020820190508181036000830152611fa981611f6d565b9050919050565b7f4e487b7100000000000000000000000000000000000000000000000000000000600052601160045260246000fd5b6000611fea82611886565b9150611ff583611886565b925082820261200381611886565b9150828204841483151761201a57612019611fb0565b5b5092915050565b7f4e487b7100000000000000000000000000000000000000000000000000000000600052601260045260246000fd5b600061205b82611886565b915061206683611886565b92508261207657612075612021565b5b828204905092915050565b7f416363657373436f6e74726f6c3a2063616e206f6e6c792072656e6f756e636560008201527f20726f6c657320666f722073656c660000000000000000000000000000000000602082015250565b60006120dd602f836118f4565b91506120e882612081565b604082019050919050565b6000602082019050818103600083015261210c816120d0565b9050919050565b7f496e76616c69642070726f706f73616c20494400000000000000000000000000600082015250565b60006121496013836118f4565b915061215482612113565b602082019050919050565b600060208201905081810360008301526121788161213c565b9050919050565b600061218a82611886565b91507fffffffffffffffffffffffffffffffffffffffffffffffffffffffffffffffff82036121bc576121bb611fb0565b5b600182019050919050565b60008190508160005260206000209050919050565b60006020601f8301049050919050565b600082821b905092915050565b6000600883026122297fffffffffffffffffffffffffffffffffffffffffffffffffffffffffffffffff826121ec565b61223386836121ec565b95508019841693508086168417925050509392505050565b6000819050919050565b600061227061226b61226684611886565b61224b565b611886565b9050919050565b6000819050919050565b61228a83612255565b61229e61229682612277565b8484546121f9565b825550505050565b600090565b6122b36122a6565b6122be818484612281565b505050565b5b818110156122e2576122d76000826122ab565b6001810190506122c4565b5050565b601f821115612327576122f8816121c7565b612301846121dc565b81016020851015612310578190505b61232461231c856121dc565b8301826122c3565b50505b505050565b600082821c905092915050565b600061234a6000198460080261232c565b1980831691505092915050565b60006123638383612339565b9150826002028217905092915050565b61237c826118e9565b67ffffffffffffffff81111561239557612394611c69565b5b61239f8254611ea7565b6123aa8282856122e6565b600060209050601f8311600181146123dd57600084156123cb578287015190505b6123d58582612357565b86555061243d565b601f1984166123eb866121c7565b60005b82811015612413578489015182556001820191506020850194506020810190506123ee565b86831015612430578489015161242c601f891682612339565b8355505b6001600288020188555050505b505050505050565b600061245082611886565b915061245b83611886565b925082820190508082111561247357612472611fb0565b5b92915050565b600081905092915050565b600061248f826118e9565b6124998185612479565b93506124a9818560208601611905565b80840191505092915050565b60006124c18284612484565b915081905092915050565b600060408201905081810360008301526124e68185611940565b90506124f56020830184611979565b9392505050565b7f566f74696e6720656e6465640000000000000000000000000000000000000000600082015250565b6000612532600c836118f4565b915061253d826124fc565b602082019050919050565b6000602082019050818103600083015261256181612525565b9050919050565b7f416c726561647920766f74656400000000000000000000000000000000000000600082015250565b600061259e600d836118f4565b91506125a982612568565b602082019050919050565b600060208201905081810360008301526125cd81612591565b9050919050565b7f4e6f7420766f7465640000000000000000000000000000000000000000000000600082015250565b600061260a6009836118f4565b9150612615826125d4565b602082019050919050565b60006020820190508181036000830152612639816125fd565b9050919050565b7f416c7265616479206d656d626572000000000000000000000000000000000000600082015250565b6000612676600e836118f4565b915061268182612640565b602082019050919050565b600060208201905081810360008301526126a581612669565b9050919050565b7f416363657373436f6e74726f6c3a206163636f756e7420000000000000000000600082015250565b60006126e2601783612479565b91506126ed826126ac565b601782019050919050565b7f206973206d697373696e6720726f6c6520000000000000000000000000000000600082015250565b600061272e601183612479565b9150612739826126f8565b601182019050919050565b600061274f826126d5565b915061275b8285612484565b915061276682612721565b91506127728284612484565b91508190509392505050565b600060208201905081810360008301526127988184611940565b905092915050565b7f4e487b7100000000000000000000000000000000000000000000000000000000600052603260045260246000fd5b60006127da82611886565b9150600082036127ed576127ec611fb0565b5b600182039050919050565b7f537472696e67733a20686578206c656e67746820696e73756666696369656e74600082015250565b600061282e6020836118f4565b9150612839826127f8565b602082019050919050565b6000602082019050818103600083015261285d81612821565b905091905056fea26469706673582212206b24f08b84b0c7647899a9beeaca612750a2df25dbb1578f6fe6d4ba7987e73764736f6c634300081c0033",
  "linkReferences": {},
  "deployedLinkReferences": {}
}